{
  "contractName": "BasicToken",
  "abi": [
    {
      "constant": true,
      "inputs": [],
      "name": "totalSupply",
      "outputs": [
        {
          "name": "",
          "type": "uint256"
        }
      ],
      "payable": false,
      "stateMutability": "view",
      "type": "function"
    },
    {
      "constant": true,
      "inputs": [],
      "name": "walletTeam",
      "outputs": [
        {
          "name": "",
          "type": "address"
        }
      ],
      "payable": false,
      "stateMutability": "view",
      "type": "function"
    },
    {
      "constant": true,
      "inputs": [
        {
          "name": "_owner",
          "type": "address"
        }
      ],
      "name": "balanceOf",
      "outputs": [
        {
          "name": "balance",
          "type": "uint256"
        }
      ],
      "payable": false,
      "stateMutability": "view",
      "type": "function"
    },
    {
      "constant": true,
      "inputs": [
        {
          "name": "",
          "type": "address"
        }
      ],
      "name": "hold",
      "outputs": [
        {
          "name": "",
          "type": "uint256"
        }
      ],
      "payable": false,
      "stateMutability": "view",
      "type": "function"
    },
    {
      "constant": false,
      "inputs": [
        {
          "name": "_to",
          "type": "address"
        },
        {
          "name": "_value",
          "type": "uint256"
        }
      ],
      "name": "transfer",
      "outputs": [
        {
          "name": "",
          "type": "bool"
        }
      ],
      "payable": false,
      "stateMutability": "nonpayable",
      "type": "function"
    },
    {
      "constant": true,
      "inputs": [],
      "name": "timeFreezeTeamTokens",
      "outputs": [
        {
          "name": "",
          "type": "uint256"
        }
      ],
      "payable": false,
      "stateMutability": "view",
      "type": "function"
    },
    {
      "anonymous": false,
      "inputs": [
        {
          "indexed": true,
          "name": "from",
          "type": "address"
        },
        {
          "indexed": true,
          "name": "to",
          "type": "address"
        },
        {
          "indexed": false,
          "name": "value",
          "type": "uint256"
        }
      ],
      "name": "Transfer",
      "type": "event"
    }
  ],
  "bytecode": "0x606060405273f4e16e79102b19702cc10cbcc02c6ec0ccad8b1d600360006101000a81548173ffffffffffffffffffffffffffffffffffffffff021916908373ffffffffffffffffffffffffffffffffffffffff160217905550341561006457600080fd5b610556806100736000396000f300606060405260043610610078576000357c0100000000000000000000000000000000000000000000000000000000900463ffffffff16806318160ddd1461007d578063688ba636146100a657806370a08231146100fb578063a7e21e8014610148578063a9059cbb14610195578063e27f3853146101ef575b600080fd5b341561008857600080fd5b610090610218565b6040518082815260200191505060405180910390f35b34156100b157600080fd5b6100b961021e565b604051808273ffffffffffffffffffffffffffffffffffffffff1673ffffffffffffffffffffffffffffffffffffffff16815260200191505060405180910390f35b341561010657600080fd5b610132600480803573ffffffffffffffffffffffffffffffffffffffff16906020019091905050610244565b6040518082815260200191505060405180910390f35b341561015357600080fd5b61017f600480803573ffffffffffffffffffffffffffffffffffffffff1690602001909190505061028d565b6040518082815260200191505060405180910390f35b34156101a057600080fd5b6101d5600480803573ffffffffffffffffffffffffffffffffffffffff169060200190919080359060200190919050506102a5565b604051808215151515815260200191505060405180910390f35b34156101fa57600080fd5b6102026104eb565b6040518082815260200191505060405180910390f35b60005481565b600360009054906101000a900473ffffffffffffffffffffffffffffffffffffffff1681565b6000600160008373ffffffffffffffffffffffffffffffffffffffff1673ffffffffffffffffffffffffffffffffffffffff168152602001908152602001600020549050919050565b60026020528060005260406000206000915090505481565b600080600260003373ffffffffffffffffffffffffffffffffffffffff1673ffffffffffffffffffffffffffffffffffffffff16815260200190815260200160002054111561033c57600260003373ffffffffffffffffffffffffffffffffffffffff1673ffffffffffffffffffffffffffffffffffffffff168152602001908152602001600020544211151561033b57600080fd5b5b60406004810160003690501015151561035157fe5b6103a383600160003373ffffffffffffffffffffffffffffffffffffffff1673ffffffffffffffffffffffffffffffffffffffff168152602001908152602001600020546104f390919063ffffffff16565b600160003373ffffffffffffffffffffffffffffffffffffffff1673ffffffffffffffffffffffffffffffffffffffff1681526020019081526020016000208190555061043883600160008773ffffffffffffffffffffffffffffffffffffffff1673ffffffffffffffffffffffffffffffffffffffff1681526020019081526020016000205461050c90919063ffffffff16565b600160008673ffffffffffffffffffffffffffffffffffffffff1673ffffffffffffffffffffffffffffffffffffffff168152602001908152602001600020819055508373ffffffffffffffffffffffffffffffffffffffff163373ffffffffffffffffffffffffffffffffffffffff167fddf252ad1be2c89b69c2b068fc378daa952ba7f163c4a11628f55a4df523b3ef856040518082815260200191505060405180910390a3600191505092915050565b635bd8f08081565b600082821115151561050157fe5b818303905092915050565b600080828401905083811015151561052057fe5b80915050929150505600a165627a7a72305820d857041463a3c474d632e363d314e588e59d8c2fea877600657855abfd5100230029",
  "source": "pragma solidity 0.4.18;\r\n\r\n/**\r\n * @title ERC20Basic\r\n * @dev Simpler version of ERC20 interface\r\n * @dev see https://github.com/ethereum/EIPs/issues/179\r\n */\r\ncontract ERC20Basic {\r\n  uint256 public totalSupply;\r\n  function balanceOf(address who) view public returns (uint256);\r\n  function transfer(address to, uint256 value) public returns (bool);\r\n  event Transfer(address indexed from, address indexed to, uint256 value);\r\n}\r\n\r\n/**\r\n * @title ERC20 interface\r\n * @dev see https://github.com/ethereum/EIPs/issues/20\r\n */\r\ncontract ERC20 is ERC20Basic {\r\n  function allowance(address owner, address spender) view public returns (uint256);\r\n  function transferFrom(address from, address to, uint256 value) public returns (bool);\r\n  function approve(address spender, uint256 value) public returns (bool);\r\n  event Approval(address indexed owner, address indexed spender, uint256 value);\r\n}\r\n\r\n/**\r\n * @title SafeMath\r\n * @dev Math operations with safety checks that throw on error\r\n */\r\nlibrary SafeMath {\r\n\r\n  function mul(uint256 a, uint256 b) internal pure returns (uint256) {\r\n    uint256 c = a * b;\r\n    assert(a == 0 || c / a == b);\r\n    return c;\r\n  }\r\n\r\n  function div(uint256 a, uint256 b) internal pure returns (uint256) {\r\n    // assert(b > 0); // Solidity automatically throws when dividing by 0\r\n    uint256 c = a / b;\r\n    // assert(a == b * c + a % b); // There is no case in which this doesn't hold\r\n    return c;\r\n  }\r\n\r\n  function sub(uint256 a, uint256 b) internal pure returns (uint256) {\r\n    assert(b <= a);\r\n    return a - b;\r\n  }\r\n\r\n  function add(uint256 a, uint256 b) internal pure returns (uint256) {\r\n    uint256 c = a + b;\r\n    assert(c >= a);\r\n    return c;\r\n  }\r\n\r\n}\r\n\r\n/**\r\n * @title Basic token\r\n * @dev Basic version of StandardToken, with no allowances.\r\n */\r\ncontract BasicToken is ERC20Basic {\r\n\r\n  using SafeMath for uint256;\r\n\r\n  mapping(address => uint256) balances;\r\n  mapping(address => uint256) public hold;\r\n  //время заморозки токенов для команды 2018-10-31T00:00:00+00:00 in ISO 8601\r\n  uint public constant timeFreezeTeamTokens = 1540944000;\r\n\r\n  address public walletTeam = 0xF4e16e79102B19702Cc10Cbcc02c6EC0CcAD8b1D;\r\n\r\n  modifier onlyPayloadSize(uint size) {\r\n       assert(msg.data.length >= size + 4);\r\n       _;\r\n   }\r\n\r\n   modifier canTransfer() {\r\n       if(hold[msg.sender] > 0){\r\n          require(now > hold[msg.sender]);\r\n       }\r\n        _;\r\n   }\r\n\r\n\r\n  /**\r\n  * @dev transfer token for a specified address\r\n  * @param _to The address to transfer to.\r\n  * @param _value The amount to be transferred.\r\n  */\r\n  function transfer(address _to, uint256 _value)canTransfer onlyPayloadSize(2 * 32) public returns (bool) {\r\n    balances[msg.sender] = balances[msg.sender].sub(_value);\r\n    balances[_to] = balances[_to].add(_value);\r\n    Transfer(msg.sender, _to, _value);\r\n    return true;\r\n  }\r\n\r\n  /**\r\n  * @dev Gets the balance of the specified address.\r\n  * @param _owner The address to query the the balance of.\r\n  * @return An uint256 representing the amount owned by the passed address.\r\n  */\r\n  function balanceOf(address _owner) view public returns (uint256 balance) {\r\n    return balances[_owner];\r\n  }\r\n\r\n}\r\n\r\n/**\r\n * @title Standard ERC20 token\r\n *\r\n * @dev Implementation of the basic standard token.\r\n * @dev https://github.com/ethereum/EIPs/issues/20\r\n * @dev Based on code by FirstBlood: https://github.com/Firstbloodio/token/blob/master/smart_contract/FirstBloodToken.sol\r\n */\r\ncontract StandardToken is ERC20, BasicToken {\r\n\r\n  mapping (address => mapping (address => uint256)) allowed;\r\n\r\n  /**\r\n   * @dev Transfer tokens from one address to another\r\n   * @param _from address The address which you want to send tokens from\r\n   * @param _to address The address which you want to transfer to\r\n   * @param _value uint256 the amout of tokens to be transfered\r\n   */\r\n  function transferFrom(address _from, address _to, uint256 _value)canTransfer public returns (bool) {\r\n    var _allowance = allowed[_from][msg.sender];\r\n\r\n    // Check is not needed because sub(_allowance, _value) will already throw if this condition is not met\r\n    // require (_value <= _allowance);\r\n\r\n    balances[_to] = balances[_to].add(_value);\r\n    balances[_from] = balances[_from].sub(_value);\r\n    allowed[_from][msg.sender] = _allowance.sub(_value);\r\n    Transfer(_from, _to, _value);\r\n    return true;\r\n  }\r\n\r\n  /**\r\n   * @dev Aprove the passed address to spend the specified amount of tokens on behalf of msg.sender.\r\n   * @param _spender The address which will spend the funds.\r\n   * @param _value The amount of tokens to be spent.\r\n   */\r\n  function approve(address _spender, uint256 _value) public returns (bool) {\r\n\r\n    // To change the approve amount you first have to reduce the addresses`\r\n    //  allowance to zero by calling `approve(_spender, 0)` if it is not\r\n    //  already 0 to mitigate the race condition described here:\r\n    //  https://github.com/ethereum/EIPs/issues/20#issuecomment-263524729\r\n    require((_value == 0) || (allowed[msg.sender][_spender] == 0));\r\n\r\n    allowed[msg.sender][_spender] = _value;\r\n    Approval(msg.sender, _spender, _value);\r\n    return true;\r\n  }\r\n\r\n  /**\r\n   * @dev Function to check the amount of tokens that an owner allowed to a spender.\r\n   * @param _owner address The address which owns the funds.\r\n   * @param _spender address The address which will spend the funds.\r\n   * @return A uint256 specifing the amount of tokens still available for the spender.\r\n   */\r\n  function allowance(address _owner, address _spender) view public returns (uint256 remaining) {\r\n    return allowed[_owner][_spender];\r\n  }\r\n\r\n}\r\n\r\n/**\r\n * @title Ownable\r\n * @dev The Ownable contract has an owner address, and provides basic authorization control\r\n * functions, this simplifies the implementation of \"user permissions\".\r\n */\r\ncontract Ownable {\r\n\r\n  address public owner;\r\n\r\n  /**\r\n   * @dev The Ownable constructor sets the original `owner` of the contract to the sender\r\n   * account.\r\n   */\r\n  function Ownable() public{\r\n    owner = msg.sender;\r\n  }\r\n\r\n  /**\r\n   * @dev Throws if called by any account other than the owner.\r\n   */\r\n  modifier onlyOwner() {\r\n    require(msg.sender == owner);\r\n    _;\r\n  }\r\n\r\n  /**\r\n   * @dev Allows the current owner to transfer control of the contract to a newOwner.\r\n   * @param newOwner The address to transfer ownership to.\r\n   */\r\n  function transferOwnership(address newOwner) onlyOwner public{\r\n    require(newOwner != address(0));\r\n    owner = newOwner;\r\n  }\r\n\r\n}\r\n\r\n/**\r\n * @title Burnable Token\r\n * @dev Token that can be irreversibly burned (destroyed).\r\n */\r\ncontract BurnableToken is StandardToken {\r\n\r\n  /**\r\n   * @dev Burns a specific amount of tokens.\r\n   * @param _value The amount of token to be burned.\r\n   */\r\n  function burn(uint _value) public {\r\n    require(_value > 0);\r\n    address burner = msg.sender;\r\n    balances[burner] = balances[burner].sub(_value);\r\n    totalSupply = totalSupply.sub(_value);\r\n    Burn(burner, _value);\r\n  }\r\n\r\n  event Burn(address indexed burner, uint indexed value);\r\n\r\n}\r\n\r\n/**\r\n* @dev https://t.me/contractDev\r\n*/\r\n\r\ncontract Bettium is BurnableToken, Ownable {\r\n\r\n    string public constant name = \"BETTIUM\";\r\n\r\n    string public constant symbol = \"BETT\";\r\n\r\n    uint public constant decimals = 18;\r\n\r\n    //External company wallets\r\n    address public walletICO =     0x3a2C44d84F999b1707F113ae6AAC3cb8583E70F8;\r\n    uint public tokenICO = 60000000*10**decimals;\r\n    address public walletTeam =    0xF4e16e79102B19702Cc10Cbcc02c6EC0CcAD8b1D;\r\n    uint public tokenTeam = 40000000*10**decimals;\r\n\r\n\r\n    function Bettium()public{\r\n\r\n        totalSupply = 100000000*10**decimals;\r\n\r\n        balances[walletICO] = tokenICO;\r\n        transferFrom(this,walletICO, 0);\r\n\r\n\r\n        balances[walletTeam] = tokenTeam;\r\n        transferFrom(this,walletTeam, 0);\r\n\r\n\r\n    }\r\n\r\n    /**\r\n    * @dev Set hold for investing address\r\n    */\r\n    function setHold(address _address, uint _timeHold) onlyOwner public{\r\n\r\n        hold[_address] = _timeHold;\r\n\r\n\r\n    }\r\n\r\n\r\n\r\n\r\n\r\n}\r\n",
  "sourcePath": "D:\\gitContract\\Bettium\\contracts\\bettium.sol",
  "compiler": {
    "name": "solc",
    "version": "0.4.18+commit.9cf6e910.Emscripten.clang"
  },
  "schemaVersion": "1.0.1",
  "updatedAt": "2018-05-06T18:32:54.274Z"
}